{
  "contractName": "Adoption",
  "abi": [
    {
      "inputs": [],
      "payable": false,
      "stateMutability": "nonpayable",
      "type": "constructor"
    },
    {
      "constant": true,
      "inputs": [
        {
          "internalType": "uint256",
          "name": "",
          "type": "uint256"
        }
      ],
      "name": "adopters",
      "outputs": [
        {
          "internalType": "address",
          "name": "",
          "type": "address"
        }
      ],
      "payable": false,
      "stateMutability": "view",
      "type": "function"
    },
    {
      "constant": true,
      "inputs": [],
      "name": "mostAdoptedBreed",
      "outputs": [
        {
          "internalType": "string",
          "name": "",
          "type": "string"
        }
      ],
      "payable": false,
      "stateMutability": "view",
      "type": "function"
    },
    {
      "constant": true,
      "inputs": [],
      "name": "owner",
      "outputs": [
        {
          "internalType": "address",
          "name": "",
          "type": "address"
        }
      ],
      "payable": false,
      "stateMutability": "view",
      "type": "function"
    },
    {
      "constant": true,
      "inputs": [
        {
          "internalType": "uint256",
          "name": "",
          "type": "uint256"
        }
      ],
      "name": "vaccinationRegistry",
      "outputs": [
        {
          "internalType": "string",
          "name": "vaccineName",
          "type": "string"
        },
        {
          "internalType": "string",
          "name": "date",
          "type": "string"
        }
      ],
      "payable": false,
      "stateMutability": "view",
      "type": "function"
    },
    {
      "constant": true,
      "inputs": [
        {
          "internalType": "uint256",
          "name": "petId",
          "type": "uint256"
        }
      ],
      "name": "getVaccinationRecord",
      "outputs": [
        {
          "internalType": "string",
          "name": "",
          "type": "string"
        },
        {
          "internalType": "string",
          "name": "",
          "type": "string"
        }
      ],
      "payable": false,
      "stateMutability": "view",
      "type": "function"
    },
    {
      "constant": false,
      "inputs": [
        {
          "internalType": "string",
          "name": "breed",
          "type": "string"
        }
      ],
      "name": "setMostAdoptedBreed",
      "outputs": [],
      "payable": false,
      "stateMutability": "nonpayable",
      "type": "function"
    },
    {
      "constant": false,
      "inputs": [
        {
          "internalType": "uint256",
          "name": "petId",
          "type": "uint256"
        }
      ],
      "name": "adopt",
      "outputs": [
        {
          "internalType": "uint256",
          "name": "",
          "type": "uint256"
        }
      ],
      "payable": false,
      "stateMutability": "nonpayable",
      "type": "function"
    },
    {
      "constant": true,
      "inputs": [],
      "name": "getAdopters",
      "outputs": [
        {
          "internalType": "address[16]",
          "name": "",
          "type": "address[16]"
        }
      ],
      "payable": false,
      "stateMutability": "view",
      "type": "function"
    },
    {
      "constant": false,
      "inputs": [],
      "name": "resetAdoptionStatus",
      "outputs": [],
      "payable": false,
      "stateMutability": "nonpayable",
      "type": "function"
    }
  ],
  "bytecode": "0x60806040523480156200001157600080fd5b5060405180604001604052806040518060400160405280600f81526020017f4441502a2d323032312e30312e3233000000000000000000000000000000000081525081526020016040518060400160405280601081526020017f4a616e756172792032332c203230323200000000000000000000000000000000815250815250601260008081526020019081526020016000206000820151816000019080519060200190620000c292919062000d57565b506020820151816001019080519060200190620000e192919062000d57565b5090505060405180604001604052806040518060400160405280600f81526020017f4441502a2d323032312e30322e3233000000000000000000000000000000000081525081526020016040518060400160405280600e81526020017f4a756e652032302c203230323320000000000000000000000000000000000000815250815250601260006001815260200190815260200160002060008201518160000190805190602001906200019692919062000d57565b506020820151816001019080519060200190620001b592919062000d57565b5090505060405180604001604052806040518060400160405280600f81526020017f4441502a2d323032312e30332e3233000000000000000000000000000000000081525081526020016040518060400160405280600d81526020017f4a756c792032352c203230323300000000000000000000000000000000000000815250815250601260006002815260200190815260200160002060008201518160000190805190602001906200026a92919062000d57565b5060208201518160010190805190602001906200028992919062000d57565b5090505060405180604001604052806040518060400160405280601381526020017f5261626965732a2a2d323032322e30332e32330000000000000000000000000081525081526020016040518060400160405280600d81526020017f4d61792031352c20323032332000000000000000000000000000000000000000815250815250601260006003815260200190815260200160002060008201518160000190805190602001906200033e92919062000d57565b5060208201518160010190805190602001906200035d92919062000d57565b5090505060405180604001604052806040518060400160405280601681526020017f536f6d6556616363696e652d323032322e30342e31300000000000000000000081525081526020016040518060400160405280600d81526020017f4d61792031352c20323032332000000000000000000000000000000000000000815250815250601260006004815260200190815260200160002060008201518160000190805190602001906200041292919062000d57565b5060208201518160010190805190602001906200043192919062000d57565b5090505060405180604001604052806040518060400160405280601981526020017f416e6f7468657256616363696e652d323032322e30352e31350000000000000081525081526020016040518060400160405280600d81526020017f4d61792031352c2032303233200000000000000000000000000000000000000081525081525060126000600581526020019081526020016000206000820151816000019080519060200190620004e692919062000d57565b5060208201518160010190805190602001906200050592919062000d57565b5090505060405180604001604052806040518060400160405280601581526020017f56657456616363696e652d323032322e30362e3230000000000000000000000081525081526020016040518060400160405280600f81526020017f204a756e652032302c203230323320000000000000000000000000000000000081525081525060126000600681526020019081526020016000206000820151816000019080519060200190620005ba92919062000d57565b506020820151816001019080519060200190620005d992919062000d57565b5090505060405180604001604052806040518060400160405280601381526020017f50657447756172642d323032322e30372e32350000000000000000000000000081525081526020016040518060400160405280600d81526020017f4a756c792032352c203230323300000000000000000000000000000000000000815250815250601260006007815260200190815260200160002060008201518160000190805190602001906200068e92919062000d57565b506020820151816001019080519060200190620006ad92919062000d57565b5090505060405180604001604052806040518060400160405280600f81526020017f4441502a2d323032312e30312e3233000000000000000000000000000000000081525081526020016040518060400160405280600d81526020017f4a756c792032352c203230323300000000000000000000000000000000000000815250815250601260006008815260200190815260200160002060008201518160000190805190602001906200076292919062000d57565b5060208201518160010190805190602001906200078192919062000d57565b5090505060405180604001604052806040518060400160405280600f81526020017f4441502a2d323032312e30322e3233000000000000000000000000000000000081525081526020016040518060400160405280600e81526020017f204a756c792032352c2032303233000000000000000000000000000000000000815250815250601260006009815260200190815260200160002060008201518160000190805190602001906200083692919062000d57565b5060208201518160010190805190602001906200085592919062000d57565b5090505060405180604001604052806040518060400160405280600f81526020017f4441502a2d323032312e30332e3233000000000000000000000000000000000081525081526020016040518060400160405280600e81526020017f204a756c792032352c203230323300000000000000000000000000000000000081525081525060126000600a815260200190815260200160002060008201518160000190805190602001906200090a92919062000d57565b5060208201518160010190805190602001906200092992919062000d57565b5090505060405180604001604052806040518060400160405280601381526020017f5261626965732a2a2d323032322e30332e32330000000000000000000000000081525081526020016040518060400160405280600e81526020017f204a756c792032352c203230323300000000000000000000000000000000000081525081525060126000600b81526020019081526020016000206000820151816000019080519060200190620009de92919062000d57565b506020820151816001019080519060200190620009fd92919062000d57565b5090505060405180604001604052806040518060400160405280601681526020017f536f6d6556616363696e652d323032322e30342e31300000000000000000000081525081526020016040518060400160405280600e81526020017f204a756c792032352c203230323300000000000000000000000000000000000081525081525060126000600c8152602001908152602001600020600082015181600001908051906020019062000ab292919062000d57565b50602082015181600101908051906020019062000ad192919062000d57565b5090505060405180604001604052806040518060400160405280601981526020017f416e6f7468657256616363696e652d323032322e30352e31350000000000000081525081526020016040518060400160405280600e81526020017f204a756c792032352c203230323300000000000000000000000000000000000081525081525060126000600d8152602001908152602001600020600082015181600001908051906020019062000b8692919062000d57565b50602082015181600101908051906020019062000ba592919062000d57565b5090505060405180604001604052806040518060400160405280601581526020017f56657456616363696e652d323032322e30362e3230000000000000000000000081525081526020016040518060400160405280600e81526020017f204a756c792032352c203230323300000000000000000000000000000000000081525081525060126000600e8152602001908152602001600020600082015181600001908051906020019062000c5a92919062000d57565b50602082015181600101908051906020019062000c7992919062000d57565b5090505060405180604001604052806040518060400160405280601381526020017f50657447756172642d323032322e30372e32350000000000000000000000000081525081526020016040518060400160405280600e81526020017f204a756c792032352c203230323300000000000000000000000000000000000081525081525060126000600f8152602001908152602001600020600082015181600001908051906020019062000d2e92919062000d57565b50602082015181600101908051906020019062000d4d92919062000d57565b5090505062000e06565b828054600181600116156101000203166002900490600052602060002090601f016020900481019282601f1062000d9a57805160ff191683800117855562000dcb565b8280016001018555821562000dcb579182015b8281111562000dca57825182559160200191906001019062000dad565b5b50905062000dda919062000dde565b5090565b62000e0391905b8082111562000dff57600081600090555060010162000de5565b5090565b90565b610bc48062000e166000396000f3fe608060405234801561001057600080fd5b50600436106100935760003560e01c80638da5cb5b116100665780638da5cb5b146102a15780639441f1f6146102eb578063b33eb3ec1461036e578063b5b1505114610378578063d19875661461048b57610093565b80633de4eb171461009857806343ae80d3146100de5780638588b2c51461014c57806386c4953d1461018e575b600080fd5b6100a0610546565b6040518082601060200280838360005b838110156100cb5780820151818401526020810190506100b0565b5050505090500191505060405180910390f35b61010a600480360360208110156100f457600080fd5b81019080803590602001909291905050506105c7565b604051808273ffffffffffffffffffffffffffffffffffffffff1673ffffffffffffffffffffffffffffffffffffffff16815260200191505060405180910390f35b6101786004803603602081101561016257600080fd5b81019080803590602001909291905050506105fa565b6040518082815260200191505060405180910390f35b6101ba600480360360208110156101a457600080fd5b810190808035906020019092919050505061066b565b604051808060200180602001838103835285818151815260200191508051906020019080838360005b838110156101fe5780820151818401526020810190506101e3565b50505050905090810190601f16801561022b5780820380516001836020036101000a031916815260200191505b50838103825284818151815260200191508051906020019080838360005b83811015610264578082015181840152602081019050610249565b50505050905090810190601f1680156102915780820380516001836020036101000a031916815260200191505b5094505050505060405180910390f35b6102a961080f565b604051808273ffffffffffffffffffffffffffffffffffffffff1673ffffffffffffffffffffffffffffffffffffffff16815260200191505060405180910390f35b6102f3610834565b6040518080602001828103825283818151815260200191508051906020019080838360005b83811015610333578082015181840152602081019050610318565b50505050905090810190601f1680156103605780820380516001836020036101000a031916815260200191505b509250505060405180910390f35b6103766108d2565b005b6103a46004803603602081101561038e57600080fd5b810190808035906020019092919050505061093f565b604051808060200180602001838103835285818151815260200191508051906020019080838360005b838110156103e85780820151818401526020810190506103cd565b50505050905090810190601f1680156104155780820380516001836020036101000a031916815260200191505b50838103825284818151815260200191508051906020019080838360005b8381101561044e578082015181840152602081019050610433565b50505050905090810190601f16801561047b5780820380516001836020036101000a031916815260200191505b5094505050505060405180910390f35b610544600480360360208110156104a157600080fd5b81019080803590602001906401000000008111156104be57600080fd5b8201836020820111156104d057600080fd5b803590602001918460018302840111640100000000831117156104f257600080fd5b91908080601f016020809104026020016040519081016040528093929190818152602001838380828437600081840152601f19601f820116905080830192505050505050509192919290505050610a93565b005b61054e610aad565b60016010806020026040519081016040528092919082601080156105bd576020028201915b8160009054906101000a900473ffffffffffffffffffffffffffffffffffffffff1673ffffffffffffffffffffffffffffffffffffffff1681526020019060010190808311610573575b5050505050905090565b600181601081106105d457fe5b016000915054906101000a900473ffffffffffffffffffffffffffffffffffffffff1681565b600080821015801561060d5750600f8211155b61061657600080fd5b336001836010811061062457fe5b0160006101000a81548173ffffffffffffffffffffffffffffffffffffffff021916908373ffffffffffffffffffffffffffffffffffffffff160217905550819050919050565b606080600083101580156106805750600f8311155b61068957600080fd5b610691610ad0565b60126000858152602001908152602001600020604051806040016040529081600082018054600181600116156101000203166002900480601f0160208091040260200160405190810160405280929190818152602001828054600181600116156101000203166002900480156107485780601f1061071d57610100808354040283529160200191610748565b820191906000526020600020905b81548152906001019060200180831161072b57829003601f168201915b50505050508152602001600182018054600181600116156101000203166002900480601f0160208091040260200160405190810160405280929190818152602001828054600181600116156101000203166002900480156107ea5780601f106107bf576101008083540402835291602001916107ea565b820191906000526020600020905b8154815290600101906020018083116107cd57829003601f168201915b5050505050815250509050806000015181602001518191508090509250925050915091565b6000809054906101000a900473ffffffffffffffffffffffffffffffffffffffff1681565b60118054600181600116156101000203166002900480601f0160208091040260200160405190810160405280929190818152602001828054600181600116156101000203166002900480156108ca5780601f1061089f576101008083540402835291602001916108ca565b820191906000526020600020905b8154815290600101906020018083116108ad57829003601f168201915b505050505081565b60008090505b601081101561093c576000600182601081106108f057fe5b0160006101000a81548173ffffffffffffffffffffffffffffffffffffffff021916908373ffffffffffffffffffffffffffffffffffffffff16021790555080806001019150506108d8565b50565b6012602052806000526040600020600091509050806000018054600181600116156101000203166002900480601f0160208091040260200160405190810160405280929190818152602001828054600181600116156101000203166002900480156109eb5780601f106109c0576101008083540402835291602001916109eb565b820191906000526020600020905b8154815290600101906020018083116109ce57829003601f168201915b505050505090806001018054600181600116156101000203166002900480601f016020809104026020016040519081016040528092919081815260200182805460018160011615610100020316600290048015610a895780601f10610a5e57610100808354040283529160200191610a89565b820191906000526020600020905b815481529060010190602001808311610a6c57829003601f168201915b5050505050905082565b8060119080519060200190610aa9929190610aea565b5050565b604051806102000160405280601090602082028038833980820191505090505090565b604051806040016040528060608152602001606081525090565b828054600181600116156101000203166002900490600052602060002090601f016020900481019282601f10610b2b57805160ff1916838001178555610b59565b82800160010185558215610b59579182015b82811115610b58578251825591602001919060010190610b3d565b5b509050610b669190610b6a565b5090565b610b8c91905b80821115610b88576000816000905550600101610b70565b5090565b9056fea265627a7a72315820fc80f2a22285cc503fa892f38980312c639824da9f88711d251035410cdce28064736f6c63430005100032",
  "source": "pragma solidity ^0.5.0;\r\n\r\ncontract Adoption {\r\n    address public owner;\r\n    address[16] public adopters;\r\n    string public mostAdoptedBreed;\r\n\r\n    struct VaccinationRecord {\r\n        string vaccineName;\r\n        string date;\r\n    }\r\n    mapping(uint256 => VaccinationRecord) public vaccinationRegistry;\r\n\r\n    constructor() public {\r\n        // Hard-code the vaccination history for all pets\r\n        vaccinationRegistry[0] = VaccinationRecord(\"DAP*-2021.01.23\", \"January 23, 2022\"); // January 23, 2022 \r\n        vaccinationRegistry[1] = VaccinationRecord(\"DAP*-2021.02.23\", 'June 20, 2023 ');\r\n        vaccinationRegistry[2] = VaccinationRecord(\"DAP*-2021.03.23\", 'July 25, 2023');\r\n        vaccinationRegistry[3] = VaccinationRecord(\"Rabies**-2022.03.23\", 'May 15, 2023 ');\r\n\r\n        vaccinationRegistry[4] = VaccinationRecord(\"SomeVaccine-2022.04.10\", 'May 15, 2023 ');\r\n        vaccinationRegistry[5] = VaccinationRecord(\"AnotherVaccine-2022.05.15\", 'May 15, 2023 '); // May 15, 2023 \r\n        vaccinationRegistry[6] = VaccinationRecord(\"VetVaccine-2022.06.20\", ' June 20, 2023 '); // June 20, 2023 \r\n        vaccinationRegistry[7] = VaccinationRecord(\"PetGuard-2022.07.25\", 'July 25, 2023'); // July 25, 2023\r\n\r\n        // Continue setting records for pets 8 to 15...\r\n        vaccinationRegistry[8] = VaccinationRecord(\"DAP*-2021.01.23\", 'July 25, 2023');\r\n        vaccinationRegistry[9] = VaccinationRecord(\"DAP*-2021.02.23\", ' July 25, 2023');\r\n        vaccinationRegistry[10] = VaccinationRecord(\"DAP*-2021.03.23\", ' July 25, 2023'); \r\n        vaccinationRegistry[11] = VaccinationRecord(\"Rabies**-2022.03.23\", ' July 25, 2023'); \r\n\r\n        vaccinationRegistry[12] = VaccinationRecord(\"SomeVaccine-2022.04.10\", ' July 25, 2023');\r\n        vaccinationRegistry[13] = VaccinationRecord(\"AnotherVaccine-2022.05.15\", ' July 25, 2023'); \r\n        vaccinationRegistry[14] = VaccinationRecord(\"VetVaccine-2022.06.20\", ' July 25, 2023'); \r\n        vaccinationRegistry[15] = VaccinationRecord(\"PetGuard-2022.07.25\", ' July 25, 2023'); \r\n    }\r\n    // Get vaccination record for a pet\r\n    function getVaccinationRecord(uint petId) public view returns (string memory, string memory) {\r\n        require(petId >= 0 && petId <= 15);\r\n\r\n        VaccinationRecord memory record = vaccinationRegistry[petId];\r\n        return (record.vaccineName, record.date);\r\n    }\r\n\r\n    // Set the most adopted breed\r\n    function setMostAdoptedBreed(string memory breed) public   {\r\n        // Update the mostAdoptedBreed state variable with the new value\r\n        mostAdoptedBreed = breed;\r\n    }\r\n\r\n    // Adopting a pet\r\n    function adopt(uint petId) public returns (uint) {\r\n        require(petId >= 0 && petId <= 15);\r\n\r\n        adopters[petId] = msg.sender;\r\n\r\n        return petId;\r\n    }\r\n    // Retrieving the adopters\r\n    function getAdopters() public view returns (address[16] memory) {\r\n        return adopters;\r\n    }\r\n\r\n    // Reset adoption status for all pets\r\n    function resetAdoptionStatus() public {\r\n        // require(msg.sender == owner, \"Only the owner can reset the adoption status.\");\r\n        \r\n        for (uint i = 0; i < 16; i++) {\r\n            adopters[i] = 0x0000000000000000000000000000000000000000;\r\n        }\r\n    }\r\n\r\n\r\n\r\n\r\n}\r\n",
  "sourcePath": "C:/Users/linti/Desktop/pet-shop-project/contracts/Adoption.sol",
  "compiler": {
    "name": "solc",
    "version": "0.5.16+commit.9c3226ce.Emscripten.clang"
  },
  "schemaVersion": "3.0.22",
  "updatedAt": "2023-07-31T18:26:12.321Z",
  "networkType": "ethereum",
  "devdoc": {
    "methods": {}
  },
  "userdoc": {
    "methods": {}
  }
}